:020000041000EA
:10000000002008205D0100101301001015010010F0
:100010001101001011010010110100101101001058
:100020001101001011010010110100101701001042
:100030001101001011010010190100101B01001026
:100040001D0100101D0100101D0100101D010010F8
:100050001D0100101D0100101D0100101D010010E8
:100060001D0100101D0100101D0100101D010010D8
:100070001D0100101D0100101D0100101D010010C8
:100080001D0100101D0100101D0100101D010010B8
:100090001D0100101D0100101D0100101D010010A8
:1000A0001D0100101D0100101D0100101D01001098
:1000B0001D0100101D0100101D0100101D01001088
:1000C0001D0100101D0100101D0100101D01001078
:1000D0001D0100101D0100101D0100101D01001068
:1000E0001D0100101D0100101D0100101D01001058
:1000F0001D0100101D0100101D0100101D01001048
:100100001D0100101D0100101D0100101D01001037
:1001100000BE00BE00BE00BE00BE00BEEFF3058004
:10012000103800BEF2EB8871E0AA00100CAB001092
:10013000A801001090A31AE7D3DEFFFF42012110AF
:10014000FF010000C4C10000793512AB4FF0000080
:100150002049086006C881F3088810474FF05040D6
:10016000006810B14FF00000F2E70FA40ECC002998
:1001700002D000F015F8F9E71749184A002000E00E
:1001800001C19142FCD1002080F30A8814498847BC
:10019000144988471449884700BEFDE701C901C2D8
:1001A0009A42FBD3704700BF0CAB00101001002037
:1001B00000190020FCC200100000082000000820E8
:1001C000FCC20010001008200010082000000000F1
:1001D0007047000008ED00E0001900202C270020E7
:1001E000214200103D020010E5410010F8B500BFAB
:1001F000064B0749C91A891048BF0131491003D07D
:10020000044B0BB101481847704700BF001900208C
:10021000001900200000000008B5054B1BB105497E
:100220000548AFF30080BDE80840FFF7E1BF00BF1D
:1002300000000000B426002000A100102DE9F04FBE
:100240009FB004F0E5F841F2883001F061FC00272E
:1002500001F050FD8DF83C700646894601F04AFDDC
:100260006F4B0446F8200D461F7002F0EFFB8046EE
:10027000002800F082806B4804F014F900F0A4FC20
:10028000674B694A0433DFF8B4A10D920DF13C0BC2
:100290000C933CE001F02EFD001B61EB0501824553
:1002A00077EB01012DDA01F025FD9DF83C30044685
:1002B0000D46002B4DD04146584600F0C3F898F843
:1002C00034308DF83C70002B3CD0D8E91A23CDE9AE
:1002D0000A23D8E91623CDE9082398F82930534991
:1002E0000693D8E90823CDE9042398F828304C4830
:1002F0000293D8E90623CDE90023D8F82C2003F097
:1003000007FF2E2004F08CF8642001F001FC01F0BE
:10031000F1FC801B61EB0901824577EB0101B9DA41
:1003200001F0E8FC8DF83C700646894600F04CFC74
:10033000B8B99DF83C30002BACD059463C4803F08E
:10034000E7FEA7E73B4B93E80700354B83E8070040
:10035000D7E70D9B93E80300314B18600C9B197095
:10036000CFE7DC46DFF8D8E0BEE80F00ACE80F00CE
:10037000DEF800308CF800308CE72F4804F092F85B
:10038000284804F08FF800F01FFC274B2B4F0D93EB
:10039000234B0DF13C0B04330C9319E001F0AAFC44
:1003A000001B61EB0501874278EB01010ADA01F0DD
:1003B000A1FC0D9B04460D4693E80300184B186002
:1003C0000C9B19702E2004F02BF8642001F0A0FB88
:1003D00001F090FC801B61EB0901874278EB010181
:1003E000DCDA01F087FC8DF83C800646894600F097
:1003F000EBFB40B99DF83C30002BCFD059460C4860
:1004000003F086FECAE7DC46DFF834E0BEE80F0002
:10041000ACE80F00DEF800308CF80030BEE700BF1B
:10042000B021002000A1001068A1001070A10010F0
:100430005CA10010BCA1001018A100101FA10700B2
:1004400048A10010002800F069822DE9F0430E4613
:10045000B5B0002900F0378103780446242B40F022
:1004600032812A2108F04AF9002800F02C81651C0D
:10047000A84240F22683A0EB040CACF10203042B4B
:100480000CF1FF3C40F2598300222CF0030E2B4666
:10049000754453F8041B9D4282EA0102F9D1C2F36C
:1004A00007275740C2F307435F4087EA1267F445C6
:1004B000FFB218D02B4613F8012B984287EA0207A7
:1004C00011D96B787B40DFB2AB1C98420BD9AB786B
:1004D0005F40EB1C984206D9EB785F402B1D984299
:1004E00001D92B795F4010220021013008F0A2F8D9
:1004F000C0B2B84240F0E78000257F22214606F1D5
:10050000780008F09DF921467F2286F8F75014A85C
:1005100008F096F92A2114A88DF8CF5008F0EEF8CB
:1005200000B1057000246D46274650220021684620
:1005300008F096F80DF151000378002B00F0C08010
:100540002C2145F8040B08F0D9F8013418B1142C0B
:1005500000F8017BF0D1009B1A78472A00F0B780A1
:10056000522A40F0318159784D2940F02D819978F7
:10057000432940F02981019CFCB1204608F032FA61
:1005800005281AD9217860783039303801EB81019B
:1005900000EB4101A2782379E07831606179303A4B
:1005A000303B02EB820203EB83033038303900EB3F
:1005B000420201EB4303C6E90123039818B1037813
:1005C000002B40F04282002200230598C6E9062352
:1005D000002800F06D820378002B00F06982069BF2
:1005E0001D7806F0EFFB0022754B8046894601F02E
:1005F000D1FF02F041F86423044603FB00F002F04F
:1006000017F802460B464046494601F089FF002292
:100610006C4B01F0BFFF80462046894602F008F887
:1006200002460B464046494601F066FF05F0FB05D1
:10063000532D02460B4603D101F1004102460B4601
:100640000798C6E90823002800F038820378002BB9
:1006500000F0348206F0B6FB02460B460898C6E965
:100660001A23002800F027820378002B00F0238251
:1006700006F0A8FB099CC6E91C01FCB1204608F065
:10068000B1F905281AD90A2220796179237800FB6B
:100690000211303B03EB830201F5B861A378607867
:1006A0007161E178303B303800EB420003EB8303AB
:1006B000A1F1300202EB4303C6E90303029B24E1EC
:1006C000002C7FF448AFFF2035B0BDE8F0835978A7
:1006D00047297FF445AF9878B0F141047FF440AFEB
:1006E000019D05B3284608F07DF905281BD92B7814
:1006F0006A78303B03EB8303303A02EB4302AB787A
:10070000E878303B326003EB83022B796979303B28
:10071000303800EB420003EB8303A1F1300202EB1F
:100720004303C6E90103029818B10378002B40F097
:100730003F81002200230498C6E9062318B10378FC
:10074000002B40F00281002200230698C6E908230E
:10075000002800F0F4810378002B40F0F280079825
:10076000F36218B10378002B40F0E7800898B46377
:1007700018B10378002B40F0DB8000220023099899
:10078000C6E9102318B10378002B40F0CC8000227A
:1007900000230B98C6E9162318B10378002B40F00C
:1007A000BF8000200021F36AC6E91801002BD4BFE6
:1007B0000023012386F83430002035B0BDE8F083F3
:1007C0000000594000004E40472A7FF47CAF597822
:1007D0004C2940F0208199784C2940F01C810198E7
:1007E000002800F073810378002B00F06F81029BDA
:1007F0001D7806F0E7FA0022B64B8046894601F0E4
:10080000C9FE01F039FF6423044603FB00F001F048
:100810000FFF02460B464046494601F081FE00228A
:10082000AD4B01F0B7FE80462046894601F000FF3F
:1008300002460B464046494601F05EFE05F0FB05C8
:10084000532D02460B4603D101F1004102460B46EF
:100850000398C6E90623002800F035810378002BB1
:1008600000F03181049B1D7806F0ACFA0022994B10
:100870008046894601F08EFE01F0FEFE64230446A8
:1008800003FB00F001F0D4FE02460B464046494609
:1008900001F046FE0022904B01F07CFE804620468F
:1008A000894601F0C5FE05F0FB0502460B464046B1
:1008B000494601F021FE532D02D101F100431946B2
:1008C000059CC6E90801FCB1204608F08BF8052814
:1008D0001AD9217860783039303801EB810100EB8A
:1008E0004101A2782379E07831606179303A303B78
:1008F00002EB820203EB83033038303900EB420213
:1009000001EB4303C6E90123069B1B78A3F14103D6
:10091000B3FA83F35B0986F834304DE7FF20704764
:1009200006F050FA3FE706F04DFA02460B4630E774
:1009300006F048FA02460B4621E706F047FA04465D
:1009400014E706F043FA034609E7059B1F7806F013
:1009500039FA00225F4B8046894601F01BFE01F008
:100960008BFE6423054603FB00F001F061FE0246A6
:100970000B464046494601F0D3FD0022564B01F09C
:1009800009FE80462846894601F052FE02460B4683
:100990004046494601F0B0FD07F0FB07532F0246E1
:1009A0000B467FF4D2AE01F1004102460B46CCE685
:1009B000039B1F7806F006FA0022464B80468946C4
:1009C00001F0E8FD01F058FE6423054603FB00F04A
:1009D00001F02EFE02460B464046494601F0A0FDBE
:1009E00000223D4B01F0D6FD80462846894601F0A5
:1009F0001FFE02460B464046494601F07DFD07F0CA
:100A0000FB07532F02460B467FF495AE01F10041E0
:100A100002460B468FE6472A7FF455AE5978532994
:100A20005CD0472A7FF44FAE5A78532A7FF44BAEFE
:100A30009B78563B7FF447AE039820B1027812B101
:100A400006F0C4F90346B363B6E6049B1D7806F0CE
:100A5000B9F900221F4B8046894601F09BFD01F049
:100A60000BFE6423044603FB00F001F0E1FD0246A7
:100A70000B464046494601F053FD0022164B01F05B
:100A800089FD80462046894601F0D2FD02460B468C
:100A90004046494601F030FD05F0FB05532D024666
:100AA0000B467FF492AD01F1004102460B468CE506
:100AB00000220023C4E500200021DBE50022002302
:100AC000CCE500270FE500200021F9E600220023F5
:100AD000BEE600BF0000594000004E409978413901
:100AE0009FD1029820B1037813B106F06FF9014647
:100AF0000F98316358B303784BB306F063F902469D
:100B00000B461098C6E91223F0B10378E3B106F062
:100B100059F902460B461198C6E9102388B10378AB
:100B20007BB106F04FF9336BC6E91401022BD4BF39
:100B30000023012386F835303EE60027BAE4034659
:100B40000DE600200021EEE700220023E3E700226B
:100B50000023D6E730B5DFF86CE00025DEF800C0F2
:100B6000154C6146154A20789369DB0611D49369C8
:100B7000DB06FCD41368DBB20A2B0CD00D2B0AD099
:100B800038B93A29F0DC63540D4B01255854023131
:100B9000E9E76DB930BD002D18BF8C46BCF13B0FA5
:100BA000DCBF002304F80C300023CEF8003030BD49
:100BB000CEF8001030BD00BFEC210020000007403F
:100BC000ED21002038220020F8B52A4C4FF41661A0
:100BD000204601F0D9F80B21022000F055F80B2136
:100BE000032000F051F84FF4E131204601F04EF9B6
:100BF000206B214D00F4404000230122082128638E
:100C0000204601F091F90121204601F0C5F921208B
:100C10001A4900F06DF90121212000F027F9502137
:100C20000A2000230D26A163616B154F01F03801E6
:100C30006963144AB7F9001083B9814215D0A369DA
:100C40009B06FCD4206012F8013BA3F10D03B3FA1C
:100C500083F310785B090028EED1F8BDA3699F06E5
:100C6000F0D5A3699F06F9D4ECE7A3699D06FCD4EF
:100C70002660E4E70000074000100740550B001015
:100C800008270020C8A1001010B44FF480740C4B4A
:100C900053F8202003EB8003C00082F0400200F1F3
:100CA000804003F5805C02F0C00200F5203003F5BF
:100CB0004053CCF8002041601C605DF8044B704745
:100CC000048003400FB400B583B0049C074803F0D0
:100CD000E9FB3CB105A92046019103F053FA044811
:100CE00003F0E0FB012003F065FA00BFE4A100106F
:100CF000F4A1001070B58646EFF3108572B6124C61
:100D0000D4E8CF6F0120002EFAD1C4E8460F002EA0
:100D1000F6D1BFF35F8F4FF0010CC80801F0070355
:100D20000CFA03F31EF800C01CEA030608D14CEAD3
:100D3000030C0EF800C0C4E88F6F85F3108870BDF7
:100D40001046FFF7BFFF00BFA71D0020F8B5EFF367
:100D5000108772B61C4ED6E8CF5F0124002DFAD161
:100D6000C6E8454F002DF6D1BFF35F8F9A421BD8DE
:100D7000012502E00132934222D3D40810F804E0A6
:100D800002F0070C05FA0CFC1EEA0C0FF2D14EEA39
:100D90000C0E00F804E010460023C6E88F3F87F3EE
:100DA0001088984207DBF8BD0023C6E88F3F87F321
:100DB00010884FF0FF300029F5D00698FFF782FF2A
:100DC0004FF0FF30E8E700BFA71D0020044A10786D
:100DD000431CDBB2182B28BF10231370704700BFD1
:100DE0008011002010B5054C82B001461F23182247
:100DF00000940348FFF7AAFF02B010BDF8A100104D
:100E00003C2200204FF0E022936843F000539360AF
:100E1000704700BF0021044B03F12002C3E88F1F7D
:100E200001339342FAD170479C1D00204FF0E0231C
:100E30004FF08032C3F80024C3F80424C3F8082418
:100E4000C3F80C24C3F81024C3F81424C3F81824DE
:100E5000C3F81C24C3F82024C3F82424C3F828248E
:100E6000C3F82C24C3F83024704700BF012300F0DE
:100E70001F029340400941B1800000F1604000F53D
:100E80006140C0F8803103607047024A203042F868
:100E90002030704700E100E00123064A410952F882
:100EA000212000F01F0003FA00F01040003818BFA6
:100EB0000120704700E100E001224309034900F0EE
:100EC0001F008240403341F82320704700E100E0DA
:100ED000054A10309268054B52F82000C01A2F289E
:100EE0008CBF00200120704700ED00E0841100203D
:100EF000F8B50D46EFF3108772B6124ED6E8CF2F35
:100F00000123002AFAD1C6E8423F002AF6D1BFF3F6
:100F10005F8F0D4B00F110049B680C4A53F824308E
:100F2000934203D0994201D001F0D4F9064B9B685B
:100F300043F82450BFF35F8F0023C6E88F3F87F349
:100F40001088F8BDA51D002000ED00E01D01001077
:100F50002DE9F04F81468B46164683B0EFF31083A0
:100F600072B6DFF8D0A10093DAE8CF1F0123002981
:100F7000FAD1CAE8413F0029F6D1BFF35F8F664B33
:100F800093F90040002CC0F2A080644D04EB4407AC
:100F900005EB870898F8061009F110091970604BE5
:100FA000BF009B6853F829006300411B2F292FD9EC
:100FB0005C49884240F0A4801C445B4B02372F44BC
:100FC000043BDB1BC3F34A036FEAC3434FF42141E5
:100FD0006FEAD34325F8241005EB840463804BF6B5
:100FE0000153A380FF2348F00100E671C4F808B064
:100FF000A3714B4B9B6843F82900BFF35F8F00231D
:10100000CAE88F3F009B83F3108803B0BDE8F08FE0
:1010100020F0010E9EF80710B1422ED84FF4214364
:10102000EB53414BB91C2944043B04375B1A2F4452
:10103000AEF10401C91BC1F34A043C49C3F34A039E
:101040000B432143A8F804103949A8F802304AF6A6
:10105000AA2073465B1B5B415843000D88F807606C
:1010600088F80600C8F808B048F00100CEF8001073
:10107000BFE7D179B1422ED996469EF906C00CEB56
:101080004C02BCF1000F05EB8202F2DA4BF6015183
:101090000EF10402A8F10407BF1AC7F34A076FEA6A
:1010A000C7476FEAD7478EF8064003EB0408204C89
:1010B00005EB8803AEF8047045F82840998083F862
:1010C00006C0DE71C3F808B093E701F003F9124BD4
:1010D00093F9004059E7724632F8041F490514D4C9
:1010E0004915023102EB410101916FF00701C91B63
:1010F000019F491B3944C1F34A0141F46041C9E7EA
:10110000019301F0E7F8019B56E701F5FF1101F5A6
:10111000FF511F31E4E700BF242700208411002085
:1011200000ED00E01D010010B411002000E0FFFF01
:1011300001488047A51D00202DE9F04F83B0EFF353
:10114000108A72B6714ED6E8CF2F0123002AFAD149
:10115000C6E8423F002AF6D1BFF35F8F6C4B00F127
:1011600010089B686B4A53F82850954245D08D4231
:101170000C4650D0684FEB1B2F2B3ED801214FEA75
:1011800050194FEA890909F1604909F5614900F0F0
:101190001F0301FA03F0D9F80030C9F8800000EA13
:1011A000030BBFF35F8FEFF30581C9B2002934D081
:1011B000884505D0CDE9001001F08CF8DDE900107C
:1011C00025F0010EDEF808C0644505D189E0D3F8AA
:1011D00008C0644531D09E469EF9062002EB4203CA
:1011E000002A07EB8303F2DA644561D0BBF1000FFC
:1011F00020D0C9F88001C9F80000454B9B6843F82E
:101200002850BFF35F8F0023C6E88F3F8AF3108812
:1012100003B0BDE8F08F1546EFE725F0010EDEF8CC
:1012200008C06445D8D19EF906407346002C08DA00
:10123000154646E0C9F88000DFE793F90640002C28
:1012400037DB04EB440C07EB8C0C9CF80710DCF844
:101250000820D9719A609CF906206100002A9A71D1
:101260003DDBBCF804E05FEA4E5E05D50EF5FF1EDF
:101270000EF5FF5E0EF11F0E6FF0070C0A194FEA14
:101280006E5E920002EB4E0208323A44ACEB030C65
:101290006244C2F34A026FEAC2426FEAD2429A80C3
:1012A0001E4B21441A7807EB81011C708A719DE75F
:1012B0007346D9B9FF228EF806204BF60152AEF8DC
:1012C0000420164C4AF6AA2294F800C01946C91BFD
:1012D00049414A43120D83F806C0227086E7104A3E
:1012E000DDE79EF906407346002CAADA0D4A0E4C43
:1012F000D21A083AC2F30A316FEA01516FEA11516A
:1013000044EA5202DA80998070E700BFA51D0020F0
:1013100000ED00E01D0100108411002024270020B2
:1013200001BDFFFFBE11002000F8FFFFF0B5EFF395
:101330000585EDB2EFF3108C72B62649D1E8CF2FB8
:101340000123002AFAD1C1E8423F002AF6D1BFF3B7
:101350005F8F214E40F0010EB4684AF6AA2354F87C
:1013600025701E4A0446A41A644163431B0D774549
:101370005BB21BD092F906409C421CD092F91240FD
:101380009C4223D092F91E409C4221D092F92A40DF
:101390009C4208BF03240FD0114A00241578137013
:1013A0008571C1E88F4F8CF31088F0BDB2680D4C89
:1013B00042F82540F0E7002404EB440402EB8402E9
:1013C000FF2494714BF601549480E5E70124F3E780
:1013D0000224F1E7A51D002000ED00E084110020AB
:1013E000242700201D01001010B5074C82B00146D3
:1013F0000523002200940548FFF7A8FC0028A8BF99
:10140000C0F1330002B010BD14A200102827002044
:10141000014B0B44036070479C1D002070B5104CBD
:10142000104DAC420ED2FF26236863B1FFF7CEFC0D
:1014300001462046FFF7ECFFA680BFF35F8F08341C
:10144000AC42F1D370BDFFF7C1FC01462046FFF767
:10145000DFFF2671BFF35F8F0834AC42E4D370BD69
:10146000F81800200019002010B50446FFF7AEFC64
:1014700001462046FFF7CCFFFF232371BFF35F8FA8
:1014800010BD00BF10B504460120FFF7ABFC034BB5
:1014900003442360BFF35F8F10BD00BF9C1D00207D
:1014A000024B0B440360BFF35F8F70479C1D00200D
:1014B0000D4B1A68EFF3108172B6D2E8CFCF01203E
:1014C000BCF1000FF9D1C2E84C0FBCF1000FF4D110
:1014D000BFF35F8F00221B68C3E88F2F81F3108852
:1014E00040BF002000217047FC26002000000000C3
:1014F0002DE9F04F2DED028B85B0EFF30583DBB2C4
:10150000103B9A0818BF01224FF0010103F0030BB2
:1015100018BFAF4DAF4B08BFAF4D0BEB820253F876
:10152000226001FA0BF205F541539FEDA78B019262
:101530005A602FE0B3881C0440F19380B379002BEC
:1015400040F0DD80B6F90820002AC0F21E817369E0
:1015500002EB420203EBC203D3E90247B7F1FF3FBC
:1015600008BFB4F1FF3F0ED005EB8B01AB6A0A69EF
:10157000D21AE31A934205D301232A6A03FA0BF322
:10158000134200D10C61284600F0ACFBA042B941E7
:10159000C0F2FB80B6F90830019A002B0093EA6391
:1015A000C8DBD6F8148003EB4309284608EBC907CB
:1015B000D7E9024A00F096FBA04271EB0A01B9DBC1
:1015C000BAF1000FC0F2C380D7E90431834A9342D5
:1015D00000F0ED807A88B6F9080092B242EA004045
:1015E000984702460B4652EA030100F0B080002BF8
:1015F00080F2D180B4EB020E6AEB030A38F939307D
:10160000C7E902EA002B95DB716903EB430201EBAA
:10161000C202D2E90270BE457AEB000C4FEA4302E7
:1016200088DBB4462CF8083F06E003EB430001EBEF
:10163000C0005A00D0E90270BE451A447AEB00009F
:1016400001EBC20404DB31F93230A446002BECDAA2
:1016500028F83930009BACF80030B3881C043FF503
:101660006DAF3369EFF3108272B6D3E8CF0F01216B
:101670000028FAD1C3E8401F0028F6D1BFF35F8FDE
:101680004FF6FF74B0880023316900B2B480C1E81E
:101690008F3F82F310889842FFF650AF0746A94665
:1016A000746906F1080807EB470E04EBCE03D3E993
:1016B0000250B6F90830C446002B13DBB24600973F
:1016C00004E034F936309446002B09DB03EB430683
:1016D00004EBC602D2E90271BD4270EB0101F0DAFF
:1016E0005646009FACF8007034F93E7024F83E3046
:1016F000002FD8DAB3794D46002B3FF423AF0023F7
:10170000B371B6F9083006F10808581C3DD01A46E6
:10171000776903E08046591C3FF416AF03EB4301A1
:1017200007EBC100B0F802C01C461CF4004F9E46F7
:1017300037F93130EED0944280ED028B05D0A8F815
:101740000030328927F8312034817246E3E738F8D7
:10175000393033813369EFF3108272B6D3E8CF0F9B
:1017600001210028FAD1C3E8401F0028F6D1BFF3B9
:101770005F8F7388316928F83930009B73800023AC
:10178000C1E88F3F82F31088D4E640BF05B0BDECBE
:10179000028BBDE8F08F2846CDE9022300F0A2FAC3
:1017A000029A039B10EB020E43EB010A26E7084660
:1017B0000B69029198470028C9D00299D1E900230A
:1017C00011E700BFAFF30080FFFFFFFFFFFFFFFF48
:1017D00000800B40D426002000000B40F1140010C4
:1017E0002DE9F84F364C25692DB1BDE8F84F0A2197
:1017F0003448FFF70DBEDFF8E4800321404600F0D7
:101800005FFA0326C4F80C80FFF7E0FA4FF0504C63
:101810002D4B267003442361DCF800300F216370E8
:10182000636961801D834FF00405A3F878504FF081
:101830000505A3F890504FF00605A3F8A8504FF007
:1018400007050E214FF6FF7208274FF00A0EA3F886
:10185000C0504FF001094FF00C0C4FF0020B4FF04D
:10186000090A0D204FF00B05A3F868111749A28053
:10187000A3F808E1A160A3F848B0A3F8F0A0A3F88A
:101880002051A3F838C1A3F85001A3F83090A3F871
:101890006060A3F8D8701A800D4B3046C8F82070ED
:1018A0000C49DC60FFF724FB49463046FFF7DEFABF
:1018B000094B0A211F640348BDE8F84FFFF7A8BD94
:1018C000CC110020FC2600209C1D0020FFFF1000F2
:1018D000D4260020F114001000200B4000000B4023
:1018E00000487047CC110020F8B59DF82050044600
:1018F00017461E4635B900F0FDF9874266EB010137
:1019000000295CDB2169EFF3108372B6D1E8CF0FB9
:1019100001220028FAD1C1E8402F0028F6D1BFF3F8
:101920005F8FB4F90220656902EB4201002A4FEA99
:10193000C10C206905EBC10139DB35F80CE0A4F8D6
:1019400002E04FF0000EC0E88FEF83F31088488864
:10195000069B0130C0F30E00012838BF01200B6147
:10196000079B48804B61C1E9027640EA0240236947
:10197000EFF3108172B6D3E8CF7F0126002FFAD1A2
:10198000C3E8476F002FF6D1BFF35F8FA38825F818
:101990000C30A2802369C3E88FEF81F31088012205
:1019A000E368217803F501538A405A60F8BD0022AC
:1019B000C0E88F2F83F310884FF0FF30F8BD284622
:1019C000F8BD00BF0146F0B50069EFF3108772B6AD
:1019D000D0E8CF5F0124002DFAD1C0E8454F002D9B
:1019E000F6D1BFF35F8FB1F902E04C690EEB4E0CFC
:1019F000BEF1000F4FEACC05086904EBCC0C3CDBD0
:101A0000665B4E800026C0E88F6F87F31088BCF8B5
:101A10000200CCE902230130C0F30E00012838BFD8
:101A20000120059BACF80200CCF81030069B40EA80
:101A30000E40CCF814300B69EFF3108272B6D3E885
:101A4000CFCF0127BCF1000FF9D1C3E84C7FBCF127
:101A5000000FF4D1BFF35F8F8B886353A1F804E0CC
:101A60000B69C3E88F6F82F310880122CB68097875
:101A700003F501538A405A60F0BD0023C0E88F3F50
:101A800087F310884FF0FF30F0BD00BF0346408958
:101A9000B0EB214F37DD58690A1402EB420210B552
:101AA00000EBC2001C69EFF3108C72B6D4E8CFEFE4
:101AB0000122BEF1000FF9D1C4E84E2FBEF1000F94
:101AC000F4D1BFF35F8F428889B292B28A4207D0C5
:101AD00000221B69C3E88F2F8CF31088002010BDF3
:101AE00042F4004242800121002218699971C0E845
:101AF0008F2F8CF310881C78DA68084602F50153A2
:101B0000A140596010BD0020704700BF4078704769
:101B10002DE9F04182B0064600F0ECF84FF47A73FC
:101B200004464FF0FF306FF00042E6FB0341A04255
:101B300072EB01033ABF044615460D46A61F45F158
:101B4000FF37B44275EB07033CBF0026374600F071
:101B5000D1F8301A67EB0101012871F1000106DAB2
:101B60002046294602B0BDE8F04100F0FBB800F085
:101B7000C1F8864267EB010100290ADB0021174BFF
:101B80003246009316483B460191FFF71BFF013098
:101B9000E6D04FF0000C134A1349536A9F4204D811
:101BA000906AB042DCD29F42DAD10B68EFF310802A
:101BB00072B6D3E8CF8F5FF0010EB8F1000FF8D105
:101BC000C3E848EFB8F1000FF3D1BFF35F8F0B68A4
:101BD000C3E88FCF80F3108820BFDEE7B114001078
:101BE000CC11002000000B40FC2600202DE9F04322
:101BF00006460D4683B0EFF30584E4B23CB12D4BAD
:101C00005A6AAA421CD2002003B0BDE8F0832A4FD2
:101C1000D7F80C9097F80080484600F063F808F178
:101C2000040859F828301B1A301A65EB0101984254
:101C300071F1000110DB20BF1E4B5A6AAA42E2D3A9
:101C400014BF012400249B6AB34234BF204644F0F1
:101C5000010003B0BDE8F08300F04CF8864265EB6C
:101C60000101002914DB154B3846CDE9003432461A
:101C70002B46FFF7A7FE011E0ADD0E4B5A6AAA4249
:101C800016D39B6AB34211D30B48FFF7FFFEB6E7AA
:101C9000084B5C6AAC42B6D3641B18BF01249B6A34
:101CA000B34234BF204644F00100ADE7AA42EBD175
:101CB00020BFE9E700000B40CC110020B114001058
:101CC00010B4054B054C064AA04214BF1846581CD8
:101CD0005DF8044BFFF70EB84022002000800B4057
:101CE00030A200100346416A0A46986A596A8A423D
:101CF000FAD17047034B596A0A46986A596A914269
:101D0000FAD1704700000B4030B4154A536A9C4624
:101D1000946A536A6345FAD1021959414FF000059C
:101D200028BF01250E4B5B6AB5B15A1C08BF1A4685
:101D300008D04FF0FF310A460948436A8B42FCD372
:101D40008B4207D1064902E0486A984202D1886A6C
:101D50009042F9D330BC70479942EDD8F0E700BF0C
:101D600000000B40074A536A9942FCD8994207D1B8
:101D7000044B02E05A6A914202D19A6A9042F9D821
:101D8000704700BF00000B40F8B5054606200E4620
:101D900000F096F9002842D0354A3648954214BFE3
:101DA0004FF080624FF00062334B344902601A609A
:101DB0008C6832EA0404FBD12D4B4FF48071EB1A8E
:101DC000B3FA83F32E4A5B09062022F8131000F0C1
:101DD00077F9C300B3FBF6F30133DA0920D14026CB
:101DE00001216962AA622F6BFB0722D42B460022D5
:101DF00053F82C1F062003F5805422602F6300F057
:101E00005FF940F2013103228000B0FBF6F0EB6A8B
:101E100083F0700303F07E0323602963AA64F8BD96
:101E20004FF6FE718A421BD922464FF6FF71154EBE
:101E3000D7E740F2013205F540531A636B6AAC6A8A
:101E4000062004EB831400F03BF90F4BA402A3FB24
:101E50000023DB0A0021B4FBF3F0FFF755FFC5E7D1
:101E6000C3F34503114603EB82161A46B9E700BFD8
:101E70000080074000200240003002400000024085
:101E800008270020C0FF3F00757B2B8FF8B5044664
:101E900006200D4600F014F9C300B3FBF5F301333F
:101EA000DA0908D04FF6FE718A421AD900224FF69D
:101EB000FF711B4D01E0402501216162A262266B8A
:101EC000F30715D42346002253F82C1F062003F5F0
:101ED00080531A60266300F0F3F88000B0FBF5F041
:101EE000F8BDC3F34503114603EB82151A46E4E738
:101EF00040F2013204F540531A63636AA76A062070
:101F000007EB831700F0DCF8064BBF02A3FB0030A1
:101F1000C00A0021B7FBF0F0FFF7F6FED2E700BFE2
:101F2000C0FF3F00757B2B8F013A0539D200F8B511
:101F3000054642EA411443B1A3F10103B3FA83F326
:101F40005B0944EA830343F002042E6BF3070AD4CF
:101F50002B4653F82C2F624002F06E0203F580539B
:101F60001A602E63F8BD40F2013205F540531A6342
:101F70006B6AAF6A062007EB831700F0A1F8054BE8
:101F8000BF02A3FB0030C00A0021B7FBF0F0FFF74F
:101F9000BBFEDDE7757B2B8FF8B5066B0546F307B7
:101FA0004FEA01140AD42B4653F82C2F544004F066
:101FB000100403F580531C602E63F8BD40F201321B
:101FC00000F540531A636B6AAF6A062007EB83176C
:101FD00000F076F8054BBF02A3FB0030C00A0021D9
:101FE000B7FBF0F0FFF790FEDDE700BF757B2B8FAE
:101FF00000EB400C4FEA8C0C0CF1804C0CF5803C53
:10200000F0B51646DCF80420051FB2F5803F38BF56
:102010004FF48032EDB238BFCCF80420012D2AD91C
:102020004FF40067254C0CF54052176054F82020FF
:10203000B2B9DCF80020012D82EA461202F0E0027B
:102040000CF5805632602AD94FF4006144F82030F4
:102050004FF480330CF500521160CCF80430F0BD21
:102060006769B7FBF2FE0EF1010E0EEB4E0EBEF1EC
:10207000030EFCD2DDE70129D2D103240CF5405236
:102080001460DCF80820D207FBD5DCF800200B4CEC
:1020900082EA461202F0E0020CF58056326001221C
:1020A000DCF800504D4005F00305356002FA01F1FF
:1020B000DCF808200A42FBD0C6E700BF442200201B
:1020C000014B53F8200070474422002070B4039D58
:1020D00004682D0345EA03451B4B002CB3FBF1F3C9
:1020E000B2FBF3F61FDB194A194B904214BF4FF4B1
:1020F00080424FF40042174C1A6003F580531A6077
:10210000A36832EA0303FBD1212200F540530433D4
:10211000016086601A600268002AFCDA0822C56045
:102120001A6070BC7047036803F03F038B42DAD13A
:102130008368C3F30B03B342D5D1C36803F4EE2322
:10214000AB42D0D1EDE700BF001BB70000800540D7
:10215000002002400000024030B44FF080441C4B8D
:102160001C60E0B11B4CA3F54053DC611A4C40F0FD
:10217000010044401C62596298624FF080454FF064
:10218000E061134B1548164C1D60846019604AB914
:1021900030BC4FF00042A3F580531A607047114BDA
:1021A000D861EAE74FF47A7303FB02F2B2F1807F61
:1021B0002ABF6FF07F4313461A464FF080410A4C06
:1021C00008482360094B426030BC1960704700BF6B
:1021D00000B00D40D3C007B02D3FF84F00A0014024
:1021E000F3FFFF0100800D40AC26002000A00D4051
:1021F000012300EB4000800000F1804000F58410D6
:1022000041600360704700BF002370B5DB8A04465D
:102210000D46002242E800F2520254BF1021042170
:1022200044F25220984786462B462246F446BDE8A3
:1022300070400A214FF48170604700BF0023DB8AA1
:10224000002242E800F2520201D410211847042172
:10225000184700BF08B503460846191E02DB1AB12D
:1022600040F03000FFF7D0FF40F02000FAE700BF59
:10227000034AD2F82838002BFBD0BFF35F8F70479A
:1022800000000E400021044B044ABFF35F8F43F867
:10229000041B9342F9D170470C080E402C080E40E5
:1022A00010B44FF48D704FF42A64064A064B074968
:1022B0001460D06019605368002BFCDA5DF8044BA1
:1022C000704700BF0080044000A0044000B0FA0046
:1022D000704700BF08B50148FEF7F4FC54A2001097
:1022E00038B5054C054DAC4204D254F8043B984730
:1022F000AC42FAD338BD00BFB8A00010F8A000105F
:1023000010B40748074C084B084A094904601A6092
:102310008B6832EA0303FBD15DF8044B704700BFC2
:10232000002002407F3BEFEF00300240F6FFF30356
:1023300000000240044BDB6CB3F5004F03D14FF4B7
:102340008022024BDA6470470000115000201150C7
:102350004FF0E022044BD2F8881D0B43C2F8883DB1
:1023600010EE3004704700BF030330006FF060418F
:10237000044B054A19609368DB4333F06043FAD19C
:10238000704700BF003002400000024010B545F227
:102390005320FFF753FFBDE81040034604201847C1
:1023A00010B545F25320FFF749FFBDE81040034642
:1023B00001201847FEF72EBD10B5054B054C4FF414
:1023C00088721846A16806F097FAA06010BD00BF99
:1023D0000000002000ED00E0002370B52B4C82B01F
:1023E000C4F88430FFF75CFF0122294BDA63636C89
:1023F000012BFCD10321264A244B11639C6B012C39
:10240000FCD10226052521460523224A22480096B2
:10241000FFF75CFE21462B46204A21480095FFF736
:1024200055FE0022042031461E4BFFF7E1FD2146F8
:10243000284600221C4BFFF7DBFD00220820114636
:102440001A4BFFF7D5FD002209201146174BFFF765
:10245000CFFD002206201146134BFFF7C9FD0022D5
:10246000114B07201146FFF7C3FD0420FFF728FE9C
:1024700000240F4BA3FB0035AD0CE0B2294601341C
:10248000FFF7B6FE062CF8D102B070BD0000014087
:1024900000300140002F685900000540008C86473D
:1024A00000800540001BB70080D1F008006CDC0202
:1024B00083DE1B4386B003B451FC0804CDE902015E
:1024C00051FC0904CDE9040151EC0A04CDE90601EF
:1024D00003BCF047BDE800504EEC00C4BDE800501E
:1024E0004EEC01C4BDE800504EEC02C400BD00003B
:1024F00000B5FFF7DFFF02E010FE30F4F8D441EC46
:10250000100443EC112400EE010410EE010480EEEF
:10251000200451EC1004704700B5FFF7CBFF02E038
:1025200010FE30F4F8D441EC100443EC112400EE1A
:10253000010410EE210480EE200451EC30047047B9
:1025400000B5FFF7B7FF02E010FE30F4F8D410B585
:1025500041EC100443EC112451EC040453EC052429
:10256000A0FB024C5FF0000EE0FB03CEE1FB02CECD
:102570004CEC20440024E1FB03E444EC30E480EE26
:10258000200451EC5004BDE81040704700B5FFF73F
:1025900091FF02E010FE30F4F8D441EC100443EC5B
:1025A000112451EC2104A0FB01126FEA820252FBBC
:1025B000100052FB12F252FB1000A0EBD07C53EC47
:1025C00004245CFB13F153EC1524A1FB022001FB56
:1025D000030053EC4424A2EB000050FB1CF24FEA32
:1025E000111312EB017043EBE27140EA515020EA03
:1025F000915020F0070053EC7524A0FB023C53ECF3
:10260000752400FB03CC01FB02CC53EC0424ACEB9F
:10261000824C40EA5C70A0F1010041EC400480EE85
:10262000200451EC7004704700B5FFF743FF02E04F
:1026300010FE30F4F8D440EC700400EE010410EE0B
:10264000210480EE200451EC3004704700B5FFF700
:1026500031FF02E010FE30F4F8D440EC600400EEEC
:10266000010410EE210480EE200451EC3004704788
:1026700000B5FFF71FFF02E010FE30F4F8D441EC84
:10268000800400EE010410EE010480EE400410EE20
:102690001304704700B5FFF70DFF02E010FE30F4A1
:1026A000F8D441EC800400EE010410EE010480EE49
:1026B000400410EE3304704700B5FFF7FBFE02E064
:1026C00010FE30F4F8D441EC100443EC112400EE79
:1026D000010410EE3004C0F30070704700B5FFF73E
:1026E000E9FE02E010FE30F4F8D441EC100443ECB3
:1026F000112400EE010410EE3004C0F38070704726
:1027000000B5FFF7D7FE02E010FE30F4F8D443EC3A
:10271000102441EC110400EE010410EE30F48CBFE3
:1027200001200020704700BF00B5FFF7C3FE02E0A4
:1027300010FE30F4F8D443EC102441EC110400EE08
:10274000010410EE30F42CBF01200020704700BFC0
:1027500000B5FFF7AFFE02E010FE30F4F8D441EC14
:10276000100443EC112400EE010410EE30F42CBFF1
:1027700001200020704700BF00B5FFF79BFE02E07C
:1027800010FE30F4F8D441EC100443EC112400EEB8
:10279000010410EE30F48CBF01200020704700BF10
:1027A0000022002950DA404261EB4101C9B1B1FA7F
:1027B00081F30B3B17D4D3F1200C30FA0CFC98407A
:1027C000994051EA0C011A44524202F2324201EBA2
:1027D000025141F0004140F2FE739A4238BF704707
:1027E00021E011467EE003F1210310FA03FCA3F17E
:1027F000010301FA03FCC3F1200320FA03F021FADC
:1028000003F140EA0C00A3EB020202F2324214D0C0
:1028100050F1000041EB025141F0004140F2FE73E3
:102820009A4238BF70474FF00001A8BFC7F6F07159
:102830004FF00000704700217047EBD350F10000CB
:1028400020F00100E6E70022B9B1B1FA81F30B3BB9
:1028500016D4D3F1200C30FA0CFC9840994051EA80
:102860000C011A44524202F2324201EB025140F290
:10287000FE739A4238BF704720E0114600F066B8F8
:1028800003F1210310FA03FCA3F1010301FA03FC95
:10289000C3F1200320FA03F021FA03F140EA0C000F
:1028A000A3EB020202F2324212D050F1000041EBDF
:1028B000025140F2FE739A4238BF70474FF0000158
:1028C000A8BFC7F6F0714FF00000704700217047B5
:1028D000EDD350F1000020F00100E8E7002880F27D
:1028E00035804042B0FA80F30B3B11D4984001EBA5
:1028F0000302524202F2124200EB025141F0004147
:102900004FF0000040F2FE739A4238BF704713E068
:10291000C3F1000330FA03FCC3F120029040A3EBA3
:10292000010202F212420CEB025141F0004140F26E
:10293000FE739A4238BF70474FF00041A8BFCFF6F0
:10294000F0714FF0000070470021704760B3B0FA9B
:1029500080F30B3B0FD4984001EB0302524202F28A
:10296000124200EB02514FF0000040F2FE739A4217
:1029700038BF704710E05B4230FA03FCC3F120021D
:102980009040A3EB010202F212420CEB025140F222
:10299000FE739A4238BF70474FF00001A8BFC7F6D8
:1029A000F0714FF000007047002170470022A2F242
:1029B00032425FEA215CACF10103A1EB03515B05FC
:1029C00013F5800F32D212EB535210D40B2A36DAA1
:1029D0009140D2F1200330FA03F319439040BCF147
:1029E000000FA8BF7047404261EB410170472032A1
:1029F0000EDD01FA02F3D2F12002D140D04018439B
:102A0000BCF1000FA8BF7047404261EB4101704725
:102A1000524282F3050231FA02F00021BCF1000FAC
:102A2000A8BF7047404261EB4101704702D00020CF
:102A30000021704750EA013118BF4FF0000C6FF0D1
:102A4000004101EBDC716FEAEC70704710B5044691
:102A500004F0F8F928B10346034A2344934200D80E
:102A600010BD0248FEF72EF90000082060A20010F9
:102A70009A4238BF88547047704700BF2DE9F04F25
:102A800083B09946DDE90DAB0F9B884611469A0746
:102A9000074616D1DA453AD20C460D46ABEB0A068C
:102AA0000E4422464B46414620200134B847B442EA
:102AB000F7D12946BAF1000F08D1204603B0BDE88E
:102AC000F08F0C46BAF1000F10D00E4655460C9B05
:102AD0002E449A440191721B4B46013D41461AF81F
:102AE000010D3446B847002DF5D101990F9B9B0786
:102AF000E3D5651AAB45E0D922464B464146202036
:102B00000135B8475D4504F10104F5D3D5E70C461E
:102B1000BAF1000FD9D1D0E72DE9F04F0F9FDDF8C2
:102B2000248017F0020F0A9C9DF82CA00E9DDDE971
:102B30000C9644D1F5BBB44241D207F0010B04F12D
:102B4000FF3C4FF0300EC44404E00134A6420CF8C0
:102B500001EF01D9202CF8D1BBF1000F00F08880E3
:102B6000A5422CD904F1FF3C4FF0300EC44404E0E0
:102B70000134AC420CF801EF21D0202CF8D117F031
:102B8000100F0ED017F4806F54D1A64263D0A54227
:102B900061D0B9F1100F50D0B9F1020F56D0202CEE
:102BA00029D12024CDE90B57CDE90984BDE8F04FA8
:102BB000FFF764BF17F0010B34D1B442BFD317F055
:102BC000100F1ED017F4806FE3D1002CDDD1B9F1C6
:102BD000100F63D0B9F1020F77D0302488F800408D
:102BE0000124BAF1000F11D17E0748D52B2608F831
:102BF00004600134D6E7264601344FF0300C08F863
:102C000006C0202CCDD0BAF1000FEDD02D2608F84B
:102C100004600134CDE90B57CDE90984BDE8F04FDC
:102C2000FFF72CBFBAF1000F30D0B44205F1FF35E9
:102C300085D395E7B9F1100FB3D1BE063BD5202C53
:102C4000AFD0582608F804600134A8E7202CA8D09B
:102C50002646013407E0661EB9D0B9F1100F36D010
:102C6000B9F1020FC9D14FF0620C08F806C096E71F
:102C700017F0100FC5D017F4806F86D089E73E0794
:102C800090D5202608F8046001348BE717F00C0F6C
:102C900000D0013DB442FFF452AF61E7BC0612D44C
:102CA000782488F80040302488F801400224BAF1E2
:102CB000000F99D0AAE7202C3FF473AF782608F8CC
:102CC000046001346BE75824EBE76224E9E717F06E
:102CD000200FA4F1020C04D04FF0580E08F80CE0BD
:102CE0008BE74FF0780E08F80CE086E700B97047E4
:102CF00001F096BB000000002DE9F04F97B09DED6C
:102D0000207BDDE9225B0746884651EC170B249CAB
:102D100099460C920B4602468DED047B0794FFF713
:102D2000CFFC002840F0F481DDE904014FF0FF32D0
:102D30006FF48013FFF7E8FC002840F01B81DDE909
:102D400004014FF0FF32AC4BFFF71AFD002840F0B2
:102D5000EE80DDE90401A4A3D3E90023FFF710FD11
:102D6000002840F0D380DDE90401A1A3D3E90023CA
:102D7000FFF7CAFC002840F0C980DDE90401002209
:102D80000023FFF7C1FC002840F0E88023460D90A7
:102D900013F4806F08BF062530212B460EAAA5F13B
:102DA000200605E0013BB34202F8011B00F09381CD
:102DB000092BF7D81E46ED1ADDE90401FFF75CFC8C
:102DC0008E4B044603EBC60393ED007B8DED087B31
:102DD000FFF72EFC02460B46DDE90401FFF7A0FBDE
:102DE000DDE90823FFF7B0FB02460B46CDE90A23D5
:102DF000FFF754FC8246FFF72DFC02460B46DDE947
:102E00000A01FFF78DFB02460B46CDE90A2300229B
:102E10007B4BFFF7B5FC002800F0FE800AF1010AA9
:102E20005046FFF717FC02460B46DDE90801FFF7A5
:102E30007FFC10B14FF0000A0134002E00F0FD803D
:102E4000681E0EABDFF8CCC118440FE0ACFB0A21C2
:102E5000C90801EB8102AAEB42023032BAF1090F34
:102E600000F8012F40F21C818A461D46202D05F1F5
:102E7000010306F1FF36E9D12025691E0EAB61483A
:102E8000194410E080FB0462C3EBA20303EB83024E
:102E9000A4EB420404F1300201351C4601F8012F75
:102EA000002B00F0EB80202D4FEAE473EAD1079B62
:102EB00003F00303012B18D1BBF1000F15D00D9BBC
:102EC000002B00F00A810BF1FF3BBBF1200F0CD966
:102ED0006B1E0EA930220B4405E001355D4503F859
:102EE000012F80F0D180202DF7D1079B0EACCDE9CA
:102EF00002B341464B4638460C9A01950094FFF7C1
:102F0000BDFD8246504617B0BDE8F08F079B9DED92
:102F1000047BCDE923B341464B4638460C9A8DEDF0
:102F2000207B229517B0BDE8F04F00F045B961074E
:102F300023464CBF042303234146219338464B4686
:102F4000079A48BF304CCDE922B258BF2F4C0C9A9B
:102F5000209417B0BDE8F04FFFF790BDDDE90423E2
:102F600000200021FFF7DCFA0123CDE904010D93D5
:102F700023460DE723469C0740F0AA80BBF1040FCF
:102F800040F2A6800C9B1D461C1F04EB0B0A2A4630
:102F90004B46414620200135B847AA45F7D1554652
:102FA0001B4C261F14F8010D2A464B464146B847D4
:102FB000B44205F10105F5D1079B0AF1040A98070F
:102FC000A0D50C9CAAEB04039B459BD952464B46CB
:102FD000414620200AF1010AB847AAEB04035B45E9
:102FE000F4D38FE7AFF300800000000065CDCD4142
:102FF0000000000065CDCDC1FFFFEF7F58A5001098
:103000000000E03F67666666B4A20010BCA2001034
:10301000C8A20010CDCCCCCC0022DDE90A01634B64
:10302000FFF772FB00287FF408AFBAF1000F6AD1F6
:103030000AF1010A002E7FF403AF2046FFF7F8FAE9
:1030400002460B46DDE90401FFF76AFA02460B4629
:10305000CDE904230022554BFFF756FB00287FF4EF
:103060000CAFDDE904010022504BFFF789FB00287B
:103070007FF403AF013424F00104FEE6079B03F064
:103080000303012B00F08280202D3FF42EAF0D9B17
:103090007BB32D220DEB050383F83820013524E79F
:1030A000202B3FF4E9AE0EAA15441E44302204E062
:1030B000202B05F8012F3FF4DFAE9E4203F1010300
:1030C000F6D12E220DEB060383F83820751CD4E6CA
:1030D000DDF830A063E720256EE6079B13F00C0FA8
:1030E00050D00BF1FF3BAB453FF6F2AE202D3FF445
:1030F000FCAE079B5A0701D52B22CBE71B077FF5B8
:10310000F4AE2022C6E71AF0010F3FF496AE8FE727
:10311000A60734D1BBF1030F31D90C9B1D46DC1E31
:1031200004EB0B0A2A464B46414620200135B8479E
:103130005545F7D155461E4CE61E14F8010D2A469A
:103140004B464146B847A64205F10105F5D1079B1C
:103150000AF1030A9D077FF5D5AE0C9CAAEB040388
:103160009B457FF6CFAE52464B46414620200AF1A2
:10317000010AB847AAEB04039B45F4D8C2E6DDF880
:1031800030A0D7E7AB453FF6A3AEAEE6BBF1000FEC
:103190003FF47AAF0D9B002B9FD00BF1FF3B5D45B9
:1031A000FFF496AE202D7FF474AF9EE60000E03F62
:1031B000C3A20010000000002DE9F04F9FB02A9E2E
:1031C000DDE92845074693460891099322462B4698
:1031D000204629460E96DDE92BA6FFF771FA002856
:1031E00040F0BE80204629464FF0FF32784BFFF773
:1031F000C7FA002840F0B480204629464FF0FF323D
:103200006FF48013FFF780FA002840F0A980204671
:10321000294600220023FFF777FA002840F0D581E5
:10322000CDE90A45DDE90A239046994606F4006295
:1032300016F480630F92139340F0A18058EA0903BB
:1032400040F0CA80002A40F0E38106230E9316F076
:103250000202109240F0D4815346042B38BF04235D
:103260000C920422043B12920F932046294600221E
:103270000023FFF749FA002840F0F3819DED0A7B17
:103280000F9B5A4603930E9B8DED007B029326F411
:10329000006304933846099B0899FFF72DFD024609
:1032A00016F0200F099B08990CBF6520452002F1FC
:1032B0000108B8470C9A129B16AC5D1E82EAE273B5
:1032C000A3EBE273D10F002622469946DFF804C132
:1032D00001E0202E10D0CE46ACFB0930C00800EB38
:1032E0008003A9EB43033033BEF1090F814606F199
:1032F000010602F8013BECD80523002006930A23BF
:1033000005950094099D089C4246CDE90330CDE91E
:1033100001612B4621463846FFF7FEFB109A804696
:10332000D2B1A0EB0B06B24516D90BEB06022B4629
:10333000214620200136B847B245F6D80BF1FF33BD
:103340005344CBF10102A3EB08034244924538BF3A
:10335000002308F10108984440461FB0BDE8F08FF3
:103360005A463846CDE92845CDE92BA60E9C099B47
:1033700008992A941FB0BDE8F04FFFF7BDBC58EA8A
:1033800009032BD1002A3FF462AF00230C930E9B5C
:103390000C9A934200F3B9814FF000082046294669
:1033A00000220023FFF7B0F9002840F013819DEDC3
:1033B0000A7B26F4006646F480668DED287B5A462B
:1033C0003846CDE92A8A099B08992C96D2E700BF96
:1033D000FFFFEF7FCDCCCCCC06230E93C9F30A5070
:1033E000A0F2FF30FFF724F9C1A3D3E90023FFF7D0
:1033F000ABF8C1A3D3E90023FFF77EF8C9F31309A3
:10340000CDE90C0149F07F5140460022B24B41F416
:103410004011FFF785F8A4A3D3E90023FFF794F840
:1034200002460B46DDE90C01FFF766F8FFF724F9C9
:103430000C90FFF7FDF89EA3D3E900238046894650
:10344000FFF782F80022A54BFFF756F8FFF714F9B3
:10345000034649464046129397A3D3E90023FFF75A
:1034600073F8804612988946FFF7E2F894A3D3E9EF
:103470000023FFF769F802460B4640464946FFF72E
:103480004FF802460B4680468946FFF75DF84246F4
:103490004B46CDE9100140464946FFF72DF8002282
:1034A000CDE91401DDE910018D4BFFF773F800221F
:1034B0008C4BFFF721F802460B46DDE91001FFF7C0
:1034C00069F80022884BFFF717F802460B46DDE942
:1034D0001001FFF75FF842464B46804689460020C0
:1034E0004FF08041FFF71CF802460B464046494624
:1034F000FFF702F802460B46DDE91401FFF74AF830
:1035000000227A4BFEF7F8FF129B002203F2FF3CE9
:103510004FEA0C53FFF718F880468946DDE90A01A7
:1035200042464B46FFF7F0F850B10C9B4046013B3A
:1035300049460C9300226B4BFFF72CF880468946D6
:103540000C9A43466332C62A06F00202109249469C
:103550000F9A2CD8002A5ED0042212920B433FF41B
:1035600016AFDDE90A0158A3D3E90023FFF7F4F809
:1035700048B1DDE90A0156A3D3E90023FFF7C4F8F7
:1035800000287FF404AF0E9B002B50D0139A002A22
:103590007DD0013B0E93129B9A4505D9109B002BC1
:1035A00000F0AE800223109300230F9344E022BB6F
:1035B000BAF1050F4FD906F00203002B49D10523BC
:1035C0001293AAF105030F933AE005F100430A9420
:1035D0000B9327E626F4006646F4806638462C9660
:1035E000DDE90A67344607F100455A46CDE92A8AE3
:1035F000CDE92845099B0899BCE605221292ADE762
:1036000000230222CDE90F3204220C9312922CE601
:103610004FF00508C2E6BAF1040F1FD9109B002B2A
:1036200078D104231293AAF104030F9304E0129BB0
:103630009A4531D80E9B0F930C9B002B3FF415AE8F
:10364000DDE90A0142464B46FEF7A4FFCDE90A0137
:103650000BE60223109305231293F1E70423129340
:10366000EAE7DDE90A45A0460F9B05F1004903930F
:103670000E9B5A46029326F4006304933846CDE924
:103680000089099B0899FFF737FB024608E6129B61
:103690009A4544D80F92CFE7109B8BB30E9B0F93A4
:1036A00002231093C8E700BF61436F63A787D23F2F
:1036B00071A379094F930A401655B5BBB16B02400F
:1036C000EF39FAFE422EE63F2D431CEBE2361A3F5D
:1036D0000000000080842E410000F83F0000E03F21
:1036E00000002C4000002440000018400000F03F83
:1036F000FB799F501344D33FB3C8608B288AC63FE1
:10370000129BAAEB03030F9396E7A3EB020808F1C1
:10371000FF3843E604231293022310938CE7109B97
:10372000002BEDD002230F92109385E72DE9F04F87
:103730009BB0249C954D0A94954CB1F1000A18BF9A
:10374000834625601878934C914608BFA346099399
:10375000002800F093824FF000080AE042464B46F2
:10376000514608F10108D847099B1878002800F055
:10377000CE80099B252803F101030993EED11C4655
:103780000023224612F8010BA0F1200110290AD8CB
:10379000DFE801F04009093C09090909090909386C
:1037A000093409093000A0F130010929099440F2D7
:1037B0008A802A2800F0F08000252E2800F09680CC
:1037C0000026A0F1680112292DD8DFE811F0490187
:1037D0002C0043012C0038012C002C002C002C0064
:1037E0002C002C002C0027002C002C002C002C007E
:1037F0002C002700144643F00103C2E7144643F0AF
:103800000203BEE7144643F00403BAE7144643F04C
:103810001003B6E7144643F00803B2E70999487865
:1038200043F480730132672809927ED8242840F23D
:10383000C180A0F12502422A00F2BC80DFE812F02C
:103840005001BA00BA00BA00BA00BA00BA00BA0011
:10385000BA00BA00BA00BA00BA00BA00BA00BA0098
:10386000BA00BA00BA00BA00BA00BA00BA00BA0088
:10387000BA00BA00BA00BA00BA00BA00BA00BA0078
:10388000190137011901BA00BA00BA00BA00BA002A
:10389000BA00BA00BA00BA00BA00BA00BA00BA0058
:1038A000BA00BA00BA00BC01BA00BA00BA00BA0045
:1038B000BA00BA00BA00BA00BA00BC015801BC0193
:1038C000190137011901002500E0013205EB8505DA
:1038D00000EB45051078303DA0F130010929F4D9FD
:1038E0002E28099202F101027FF46AAF099943F48C
:1038F000806348781146A0F13006092E40F22181FC
:103900002A2800F02F8109920026013259E7444607
:10391000C14501D809F1FF384B46424651460020C7
:10392000D84720461BB0BDE8F08FA0F16902D2B2A3
:103930000F2A3FD8012149F241079140394040F018
:10394000F3800A2A3DD0072A34D10A9D55F8042B6A
:10395000002A00F0138143F0210012AB1F460B93A5
:1039600003E0202900F014811A4602F00F042346D8
:10397000092C94BF303337330F2A07F8013B01F18C
:1039800001014FEA1213ECD802E100BF2D370010FD
:10399000A8260020792A00100A99099851F8045B9A
:1039A0004078002DCDE90921BCBF43F002036D42F0
:1039B000013202E742464B46514608F10108D8471A
:1039C000D2E60A99002E51F8047B18BF32463878A7
:1039D00008BF4FF0FF32002800F07B83BC18A446DC
:1039E0003A4604E012F8014F002C00F03F81944564
:1039F000F8D16446E41B5A0540F12281B44228BF45
:103A0000344613F0020300F088820223CDE90A5104
:103A100042461D46464408E04B465146D84717F8F3
:103A2000010F08F1010810B142464645F4D12B467A
:103A30000B990A9D002B40F041810A9194E6099967
:103A400048786C287FF4ECAE0A46887843F44073DB
:103A50000332E8E6099943F4007348780132E2E65C
:103A600009994878682800F0038143F08003013207
:103A7000D9E6672800F0D980472800F0DC80452887
:103A800000F0DB80CDE903530A9B0296073323F055
:103A900007031C464246F4E802674B465146584627
:103AA000CDE900670A94FFF787FB80465CE646286D
:103AB00008BF43F02003CDE903530A9B0296073366
:103AC00023F007031C464246F4E802674B46514682
:103AD0005846CDE900670A94FFF70EF9804643E6A1
:103AE00042464B465146252008F10108D8473BE69F
:103AF0000A9A990702F1040408F1010640F1C68010
:103B000010784B4642465146D847012D88BFA844FD
:103B100040F2BD8132464B46514620200136D847FF
:103B20004645F7D10A941FE66F2800F0818040F2E5
:103B30004882782800F090810A2723F01003BC46C1
:103B400041E0002606EB860600EB4600A0F13006B9
:103B500011F8010FA0F13002092AF3D90A460991A0
:103B600001322EE6DDE9092151F8046B907802322A
:103B700009920A91013226EAE67622E623F0100045
:103B800013F4806240F021003FF4E7AE12AB0B93D8
:103B90000B9B0690009308231020059300234246B8
:103BA000CDE9023001914B46514658460496FEF746
:103BB000B3FF0A958046D7E5582862D0622840F0C6
:103BC0008F800227BC4613F4806000F0DD8023F074
:103BD0000D0313F4007240F081810A990F1D13F454
:103BE000807140F037825C060A9A40F13B8112787E
:103BF000002A40F04E8123F01003002800F0498194
:103C0000114612AA0B92CDE90553CDE903C60191E5
:103C10000B9B4246009300235146029358464B4665
:103C2000FEF77AFF0A9780469EE543F4006329E792
:103C30000827BC46C7E743F4006343F0200321E7AD
:103C400013F0020300F08E8102230A951E460D46F2
:103C500042464B465146D84717F8010F08F1010874
:103C60000028F5D1294633460A9DE3E6D41BC2E677
:103C70000A46887843F0C0030332D4E50446804600
:103C800046E6102743F02003BC469CE7012D40F296
:103C9000F880464608F1FF372F4432464B465146DE
:103CA00020200136D847BE42F7D10A9B3246187809
:103CB00051464B46D847A8440A9455E54646A54286
:103CC0007FF6BBAEA844A8EB04080C4632464B4630
:103CD000514620200136D8474645F7D12146ACE66B
:103CE00013F4806200F0BB804FF4806223F0110C6B
:103CF0001CF400770A9B4AD11CF4807003F1040481
:103D000040F034811CF0400F40F0A3801CF0800F85
:103D100000F0D381B3F9001081EAE177A7EBE177F6
:103D2000BFB2CB0F002900F056813A4612A90F46C8
:103D3000DFF8D8E30B910A930C9501E020280FD00F
:103D40001546AEFB0213DB0803EB8301A2EB410136
:103D50003031092D1A4600F1010007F8011BEDD89A
:103D60000A9B0C9DCDE9055CCDE9010304960B9BF4
:103D7000424600930A235146039358464B46FEF7AA
:103D8000CBFE0A948046EFE423F00C0321E70733CF
:103D900023F00703194608465B6850F8081BDF0F3D
:103DA0000A9051EA030062D1002A40F09F81134635
:103DB000114612AACDE90C7500201546CDE90E6812
:103DC000DFF848E30B9201E020282DD05A1842F189
:103DD0000002AEFB027828F0030707EB9807D21B1E
:103DE0001E469B1A61F100070C464FF0CC3101FBD7
:103DF00003F10EFB0711A3FB0E731944052307F013
:103E00000108A8FB03389B180A2E03F130034FEA80
:103E1000570774F1000405F8013B00F1010047EA7F
:103E2000C1734FEA5101CFD2DDE90C75DDE90E68AF
:103E30000B9B424600930A23CDE9055CCDE90107BF
:103E4000049603934B4651465846FEF765FE80465E
:103E50008AE419780F4664E71027BC46B3E623F0DE
:103E6000100C45E71C064CBF12881268C0E60A46D3
:103E7000191E01DB13469CE75242134661EB4101D8
:103E800097E713465146187842464B46D847B04606
:103E900048E613F0200F14BF4120612012ACA64663
:103EA0000B940A93A0F10A040C9502E0202912D089
:103EB0002A46B2FBFCF50CFB1520C3B2092803F11E
:103EC00030008ABF1B19C3B2DBB262450EF8013B5A
:103ED00001F10101EAD20A9B0C9D94E60A9A07328D
:103EE00022F00702516852F8084B8E460A9254EAB3
:103EF000010276D123F01003002872D0002211466F
:103F000012AA0B92CDE905530B9B42460093002366
:103F1000CDE903C60191029394E7A54298BF01340D
:103F20007FF674AD4FF48063CDE90A7505EB0802A6
:103F30001F460D46141B42464B465146202008F1B1
:103F40000108D847A045F6D13B460A9F2946387854
:103F50000B9D6C1C00283FF470AD002B3FF475AE38
:103F6000002353E5A542DFD801346EE61968CB0F74
:103F7000002900F0A88081EAE172A2EBE17212A9A7
:103F80000846DFF888E10B910A930C9501E0202F99
:103F90000FD01546AEFB0213DB0803EB8301A2EB47
:103FA00041013031092D1A4607F1010700F8011BC4
:103FB000EDD80A9B0C9DCDE9055CCDE90173049613
:103FC000D5E6692823F0100C40F08C8013F4806251
:103FD0003FF48EAE88E6002A3FF4A8AE12AA0B92F8
:103FE000C0E613F0200F14BF41226122002012A965
:103FF0000A3ACDE90E68CDE90C35CDF844B0064655
:104000008846754693460B91CDF840C003E0202EBC
:1040100017D004460D4629463A460023204606F0AE
:1040200033F8D2B2092A02F1300388BF02EB0B0346
:10403000BC42DBB275F1000508F8013B06F1010650
:10404000E5D23146DDE90C35DDE910CBDDF83C8009
:104050000E9E57E70A99096851B923F0100338B149
:1040600012A90B91CDE90553CDE903C60192CFE525
:1040700013F0200F14BF4120612012ACA6460B9410
:104080000A93A0F10A040C9502E0202A12D02946D6
:10409000B1FBFCF50CFB1510C3B2092803F130008D
:1040A0008ABF1B19C3B2DBB261450EF8013B02F1B6
:1040B0000102EAD20A9B0C9DD4E7196881EAE177F4
:1040C000A7EBE1772DE6002A3FF459AF12AA0B9235
:1040D00071E713F480640DD013F0020412D004468B
:1040E0004646ECE50A276346BC466CE512AB002069
:1040F0000B939DE613F002037FF4E0AD002D7FF4F7
:1041000013AF9AE4002D7FF40DAF96E4CDCCCCCC68
:104110000EB410B585B007AC54F8043B01464FF01F
:10412000FF32009404480394FFF700FB05B0BDE89C
:10413000104003B0704700BF712A00100FB410B5D3
:104140000E4B84B006A91C6851F8043B03915CB186
:1041500000914FF0FF3202A90948A047012004B0A6
:10416000BDE8104004B07047184600F09BF92046A7
:1041700004B0BDE8104004B0704700BFA82600207E
:10418000ED2C001010B5094B84B01C684CB10346EF
:1041900000914FF0FF3203A90548A047012004B069
:1041A00010BD00F07FF9204604B010BDA826002005
:1041B000ED2C001000BEFDE7074A0346106838B139
:1041C000064903448B428CBF4FF0FF3013607047A9
:1041D000034908461160F3E7A422002000000820EC
:1041E0002C27002008B5FFF7E5FF00BF9C461446CA
:1041F00000B50B460246614683B044B1054D064802
:1042000001940095FFF79AFF0120FFF7D3FF034DBC
:104210002C46F4E7CCA20010DCA200106CA1001028
:1042200038B5064C064DFEF75BF8AC4204D254F8A4
:10423000043B9847AC42FAD338BD00BFF8A0001049
:1042400000A1001003680846114618472DE9F04107
:104250001546427D07468846002A46D0002D1DDDC2
:104260000B780A2B23D0012D4FF0000C18D04646B6
:10427000012416F8012F21460A2A04F1010422D054
:10428000A542F6D165450BDC08EB050313F8013CAC
:10429000A3F10D03B3FA83F35B093B75BDE8F0812D
:1042A0003B68A5EB0C0108EB0C009847ECE7037D9D
:1042B000002BD8D1036802210F489847012DE3D085
:1042C0004FF0010CD3E716F8013C0D2BD8D08C45EC
:1042D00008EB0C00A1EB0C0101DA3B6898470221C6
:1042E00005483B689847A446CAE7294640463B68CC
:1042F000BDE8F041184700BFA8A500102DE9F04720
:1043000082B00D4691461C460646FDF7F3FC4FF081
:10431000FF3C6FF000472E4A821841F1000394459C
:1043200077EB03013CBF62463B462A4805F0B8FEE6
:104330006B1C804640D00CB3274F284B1C68B4B18F
:10434000B9F1000F1CD1DFF89C9001E0246974B131
:104350002368002BFAD0D9F800300BB19C42F5D17C
:1043600020462A463146B8472469002CF0D1B8F1DE
:10437000000F26D1284602B0BDE8F087184FDCE7D1
:104380004FF00A0ADFF85C9002E02469002CEED0BE
:104390002368002BF9D0D9F800300BB1A342F4D137
:1043A0002A4631462046B847012220460DF1070132
:1043B0008DF807A0B847E8E7304604F013FB054640
:1043C000B9E7044805F064FE284602B0BDE8F0876E
:1043D00040420F00F81800204D42001094220020A7
:1043E00045420010A0220020084A136823B90AE0C1
:1043F00003F110021B6933B18342F9D129B918695D
:1044000010601961704701B110607047942200205C
:1044100008B500F035F900F06BFB012008BD00BFC6
:10442000F0B583B006468DF80700FDF763FC4FF04A
:10443000FF356FF00044174A821841F1000395429E
:1044400074EB03013CBF23462A46134805F028FEBF
:10445000124B07461C689CB1114D01E024697CB1E8
:104460002368002BFAD02B680BB19C42F6D1204672
:1044700001220DF10701FFF7E9FE2469002CEFD1BD
:1044800017B9304603B0F0BD034805F001FE3046D1
:1044900003B0F0BD40420F00F81800209422002025
:1044A000A022002038B5044604F09CFA01230546FA
:1044B0001A4620462946FFF721FF084B1C682CB1FD
:1044C00063682BB198472469002CF9D1284638BD80
:1044D0002469002CF4D1284638BD00BF9422002066
:1044E000B1F1000C1DDD0F4A0F4B126830B5D31A25
:1044F000B3FA83F30D240D4D5B09411E35F913E02A
:104500008C4411F8010F864506D093699B06FCD4B4
:1045100061451060F5D130BD93699D06FCD41460EF
:10452000F3E770470C270020008007400827002091
:10453000224BB1F1000C10B41C682EDD03460020A4
:104540001F4A591E12689369DB0617D4013093691C
:10455000DB06FCD41368844501F8013FF3D14CB16C
:1045600050211346916353F8342F02F0380203F5BB
:1045700080531A6060465DF8044B70474CB150217F
:104580001346916353F8342F02F0380203F5805339
:104590001A6078B15DF8044B70475CB1084B50214C
:1045A0001A681346916353F8342F02F0380203F56A
:1045B00080531A606FF00200DDE700BF2822002060
:1045C0000C270020054B1B6833B10021044A054825
:1045D0001268006891631847704700BF28220020C6
:1045E0000C27002030220020024B1A6893691B0719
:1045F000FCD470470C270020F8B51C4F1C4D3A68BE
:104600001C4EAA4214BF212522250446D6F800C01C
:1046100018B1BCF1000F10D0F8BDBCF1000FFBD0F9
:10462000014690632846FCF721FC28461249FCF716
:1046300083FD124B34601C60F8BD0B460F4A0E49D7
:10464000306028461360FCF753FC01212846FCF734
:104650000DFC3A6850211346916353F8342F02F051
:10466000380203F580531A60F8BD00BF0C27002004
:104670000080074028220020C5450010302200207D
:1046800010B50E490E4C0F480F4A104B00782160B0
:104690000020022112781B78FCF7F6FA0221012093
:1046A000FCF7F2FA4FF4E1312068FDF76DFBBDE84D
:1046B000104001210648FFF797BE00BF00000740E9
:1046C0000C27002004AB001000AB0010FCAA001067
:1046D000E4110020704700BF0022014B1A707047A0
:1046E000252700204B79FF2B0BD1887948B9CB794E
:1046F000012B07D1082A05D9034B8A7809201A70A3
:1047000070470020704700BF252700200120704718
:10471000012901D00120704708B5104B91881B7802
:10472000994201D0002008BD5378012B08D0022BFC
:10473000F8D1002164220846FDF70EFD012008BDD6
:104740005188CB0548BF480AC1F3402258BF4FF0FB
:10475000FF3001F07F01FDF77DFD00BF2527002020
:104760000048704798A60010012907D15378012B03
:1047700002D19388072B03D0002070470120704797
:104780001146A623014A01F039BA00BFF0A5001076
:104790000346012201481A70704700BFD0A50010DF
:1047A00008B50B68B3F5966F00D008BD00224FF036
:1047B000FF301146FDF74EFD024A034B10601960B1
:1047C000704700BF2C22002034220020184B70B507
:1047D0001A68002A28D0EFF3108172B6D2E8CF4FC2
:1047E0000120002CFAD1C2E8440F002CF6D1BFF30F
:1047F0005F8F00220F4C186859602270C0E88F2F1D
:1048000081F31088002400250B4E3078FCF744FB20
:1048100020B9002400252046294670BD3078FCF7D9
:104820004BFB2046294670BD4FF47A740025EBE718
:10483000CC2600202727002026270020014B1878AF
:10484000FCF73ABB2627002038B5044600200D4669
:1048500001F004FBA8B3002001F016FB88B3FDF7BC
:1048600049FA4FF0FF3E6FF0004C174A821841F1B1
:10487000000396457CEB03013CBF72466346134838
:1048800005F00EFCE8B1002001F0E8FA58B900216B
:104890004FF0FF3000F00AFD6FF002040B4805F006
:1048A000F7FB204638BD002001F0EEFA0028EED0DC
:1048B00021462A46002001F0F1FA04460028EDD1F5
:1048C000EAE76FF00204ECE740420F000027002007
:1048D00008B5FDF70FFA4FF0FF3E6FF0004C0F4A9E
:1048E000821841F1000396457CEB03013CBF724600
:1048F00063460B4805F0D4FB70B14FF0FF30002148
:1049000000F0D4FC002001F011FB0028F5D1BDE837
:104910000840034805F0BCBB08BD00BF40420F0083
:10492000002700202DE9F84380460F46FDF7E2F905
:104930004FF0FF356FF00044334A821841F1000315
:10494000954274EB03013CBF2A4623462F4805F0ED
:10495000A7FB08B9BDE8F883002001F07FFA002822
:1049600047D0002F40DD0025DFF8A890284E13E047
:104970002246002001F020FB002104464FF0FF30CA
:1049800000F094FC002001F0D1FAFDF7B3F9C9E979
:1049900000012544AF4227DD002001F02DFB7C1BE8
:1049A0008442A8BF044608EB0501002CE0D1214653
:1049B0004FF0FF3000F07AFC204601F0B7FA2046B5
:1049C00001F04CFA80B1204601F016FB0028E1D13D
:1049D000FDF790F9D9F80030D9F804209B1942F17D
:1049E000000283428A41D5D20848BDE8F84305F069
:1049F0004FBB00200021074BC3E90001BDE8F8438D
:104A0000024805F045BB00BF40420F0000270020D0
:104A100020A10700801A002030B5002185B02E4863
:104A200005F046FBF0B92D4B1A68CAB1EFF31081BF
:104A300072B6D2E8CF5F0124002DFAD1C2E8454F0B
:104A4000002DF6D1BFF35F8F254C1D682278596089
:104A5000D3B201222270C5E88F0F81F31088CBB149
:104A600005B030BD00214FF0FF3000F01FFC0020EA
:104A700001F00AFA0446184805F00AFB002CEFD0B2
:104A8000184B1B68002BEBD0174A106805B0BDE827
:104A900030401847FCF724FF0446FDF72BF94FF090
:104AA000FF3C6FF0004510F57A7241F10003944528
:104AB00075EB030138BF2B464FF000014FF00105A5
:104AC00020460A4C38BF6246CDE901150094FCF738
:104AD0000BFF05B030BD00BF00270020CC26002012
:104AE000272700202C22002034220020CD47001050
:104AF0004FF0504330B585B01C68FCF7F1FEFDF770
:104B000005F8A04202D0002005B030BD00212A4B9C
:104B100008461B7801F038FD28480368002B47D071
:104B20000120FCF761FC0346254C2649C0B22370E6
:104B3000FCF7DEF920780121FCF798F90E20FCF74C
:104B4000C7F940BB204B0125C3E90000FCF7C8FEB4
:104B50000446FDF7CFF84FF0FF3E6FF0004C10F524
:104B60007A7241F1000396457CEB03014FF000019E
:104B70002046164C3CBF72466346CDE901150094B1
:104B8000FCF7B2FE0028BEDB01211148FFF72CFC28
:104B9000012005B030BD0120FCF724F901460A4888
:104BA000FCF77EFC00220E200A49FCF7D1F9EBE766
:104BB000FCF75AFCB4E700BF08AB00100027002048
:104BC00026270020194A0010CC260020CD470010CF
:104BD000FC1100203D4800100048704734A7001029
:104BE00000487047E0A6001038B5184B04461A7804
:104BF0000AB344B940F209424FF44173144D6A803C
:104C000013482B8038BD052C1DD8124B104D53F87E
:104C1000241028460023013903E0132B20F8022F2B
:104C20000ED011F8012F0133DBB2002AF5D15B0061
:104C300043F44073E4E71121184600F025F8D8E763
:104C40004FF44A73DCE7002038BD00BF1027002076
:104C50006C220020C8A6001000B545F247308BB08A
:104C6000FDF7ECFA01220346092101A89847DDE986
:104C70000332044912BA1BBAC1E900230BB05DF834
:104C800004FB00BFF4260020012901F1FF3300F0EE
:104C9000B3805D490A784FEA121C9F2A8CBF0CF141
:104CA000370C0CF1300C012B80F800C000F0A7800D
:104CB00002F00F02092A8CBF37323032022B4270C9
:104CC00000F09D804A784FEA121C9F2A8CBF0CF19D
:104CD000370C0CF1300C032B80F802C000F08F80F1
:104CE00002F00F02092A8CBF37323032042BC27017
:104CF00000F085808A784FEA121C9F2A8CBF0CF145
:104D0000370C0CF1300C052B80F804C077D002F082
:104D10000F02092A8CBF37323032062B42716ED017
:104D2000CA784FEA121C9F2A8CBF0CF1370C0CF189
:104D3000300C072B80F806C061D002F00F02092A60
:104D40008CBF37323032082BC27158D00A794FEA03
:104D5000121C9F2A8CBF0CF1370C0CF1300C092B64
:104D600080F808C04BD002F00F02092A8CBF3732FE
:104D700030320A2B427242D04A794FEA121C9F2AE3
:104D80008CBF0CF1370C0CF1300C0B2B80F80AC0E7
:104D900035D002F00F02092A8CBF373230320C2B8B
:104DA000C2722CD08A794FEA121C9F2A8CBF0CF158
:104DB000370C0CF1300C0D2B80F80CC01FD002F01A
:104DC0000F02092A8CBF373230320E2B427316D0B5
:104DD000CA7911099F2A8CBF373130310F2B81736B
:104DE0000DD002F00F02092A94BF30323732102B57
:104DF000C27318BF103002D00023037070471844EC
:104E000000230370704700BFF426002070B500F047
:104E10002DF90C234026194CFF22A3670E201849B8
:104E2000FCF796F832460021164803F019FC0125DC
:104E3000002380211348144A418445700683068765
:104E400082604360136042F8043C80F8213080F8AF
:104E50003B3043620D4B4FF00056C360C362803B52
:104E6000836205F021F94FF480320949094B25642A
:104E70002846E664C4F89010DA6470BD0000115052
:104E80009D030020A8220020840010500001105033
:104E900010D001000020115001210E20FBF7E6BFC9
:104EA00000220248114600F001B900BFC8220020CC
:104EB000044B197021B14FF40032034BC3F890201A
:104EC000704700BF22270020002011500B785B069E
:104ED00002D14B78052B00D070474B88014ADBB2DA
:104EE0001360704700001150CB782DE9F04103F0BA
:104EF000030EBEF1010FC3F301005BD0002791F850
:104F000002C0344C0CF07F025600898806EBDC139B
:104F100004EB43134FEADC15D876C1F30A0185F0A0
:104F2000010083F802C019835870DF70D3008DBB75
:104F30002948043304EB821C03EB0008CCF80880FA
:104F40001F5082B3254BD2001344CCF80430244BBD
:104F50003F311A6821F03F01BEF1020F08BF49003E
:104F6000114419601F4B771904EB47179942FA60F7
:104F70002BD82E4404EB4613D97E82F0A04282F453
:104F800080125B6842EA816242F000421A600120AE
:104F9000BDE8F081104804EB821C0344CCF82830B3
:104FA00040F832704AB900220F4904EB4513D9602A
:104FB0005A60ECE70020BDE8F081D20002F1A04287
:104FC00002F58012CCF82420C1E7FDF783F9FA68D6
:104FD000CFE700BFA822002080001050040010502E
:104FE000B0260020FF0F10500001105005F05CB8F3
:104FF0008C4608B5114607481A460CF07F034FEA65
:10500000DC1C0CEB430C00EB4C1000F04FF80120C3
:1050100008BD00BFA822002011F07F0205D10029A1
:105020000CBF02200120064B9866C909054B01EB15
:10503000420003EB40104FF40062002105F02CB851
:1050400000201150A822002011F07F0300D17047EA
:10505000002205485B0003EBD11300EB43106FF413
:105060000061C27005F018B8A82200204FF08052ED
:1050700009480A4908B50A4B02600A609968C943A1
:1050800011F08051FAD14FF48052064803F0E8FA4B
:105090000922054B5A6708BD00200240003002403B
:1050A00000000240000010500000115000234FF09B
:1050B000010C10B580F81AC08282C38201610446D7
:1050C00004F0DEFF20B14FF40032074BC3F890200C
:1050D000204604F0C9FF10B10123237710BD2046FC
:1050E000BDE8104004F0C8BF002011502DE9F04188
:1050F00000241D4E054623463278DFF878801B4F8A
:105100000DE03B6813EB441324D0DB682846984736
:1051100032780134E4B2511CA142234606DBA2429C
:10512000A3EB0203EDD808EB4313EEE75422002172
:105130000F4803F095FA4FF0FF330D482022041D6D
:105140004360C4E90133E360FF21BDE8F04114305E
:1051500003F086BA4FF0E023D3F8F03DDB0700D52B
:1051600000BEBDE8F08100BF21270020F81B002011
:10517000C81D002048A70010704700BF704700BF3F
:105180000020704700207047704700BF704700BF85
:10519000704700BF704700BF024B5878003818BFF7
:1051A00001207047C81D0020024B1878C0F3800012
:1051B000704700BFC81D00202DE9F047DFF8E4A0CC
:1051C0009AF80030FF2B56D10E4600293ED0002120
:1051D00054220746294803F043FA0022284C294B61
:1051E00020461A70FCF740F9274B28481C60284CD1
:1051F000FCF748F9204601F0ABFD264A264B146027
:1052000023B12648FFF7C4FA254B18600024234D2C
:1052100023462A78DFF89090DFF884800EE0D8F8F3
:10522000003013EB441311D05B687BB198472A78A8
:105230000134E4B2511CA142234611DBA242EED854
:105240009B1A09EB43135B68002BEFD14FF0E0236F
:10525000D3F8F03DDB0700D500BE0020BDE8F087A5
:10526000314638468AF80070FFF7D0FD0028EDD0AF
:105270003846FFF711FE0120BDE8F087C81D002069
:10528000C01D0020232700201C1E00202812002003
:1052900014120020201E002091470010212700201A
:1052A000F81B00203012002048A700102DE9F04F15
:1052B000DFF8C8928BB099F80030FF2B00F0F18036
:1052C000A84CA94DDFF8B0A2DFF8B4B22668736924
:1052D000EFF3108272B6D3E8CF0F01210028FAD184
:1052E000C3E8401F0028F6D1BFF35F8FB26130469C
:1052F00007A901F077FB00237269C2E88F3FB36909
:1053000083F31088002800F0CC809DF81D30013B0D
:10531000072B00F27D83DFE803F0A7B1959D8E3562
:105320000A04089B002BD1D009989847CEE79DF836
:10533000201001F07F0605EB460000EBD11090F83D
:10534000343023F0010380F8343090F8343023F007
:10535000040380F83430002E00F0A680037D9AF814
:105360000020934280F09380804A126812EB43132E
:1053700000F090809E699DF82120099B9DF81C00FB
:10538000B047A3E79BF80030002B00F083809BF828
:105390000030013BDBB28BF800309BF8003003F0AB
:1053A000FF00002B92D1704F9DF81C803B7843F09A
:1053B00001033B7097F8343060F3000387F8343012
:1053C00097F8343060F3820387F8343097F835303B
:1053D00060F3000387F8353097F8353060F38203C7
:1053E00087F8353000F06CFC9DF8203003F0600247
:1053F000602A6CD0402A7CD003F01F03012B00F000
:10540000C180022B00F08180002B60D1202A00F0A7
:10541000E981002A5BD19DF82130092B57D8DFE8BC
:1054200013F0B001A2015600C101560095016B01B5
:1054300056006001F4002B78D9077FF547AFFFF7DE
:10544000A9FE43E7EB78DA077FF540AF0898FFF74E
:1054500095FE3BE72B78D8077FF538AF2878C0F367
:10546000C000FFF795FE31E79DF81C00FFF73EFEF8
:1054700000F01CFC9DF82030AB7027E79DF81C0065
:10548000FFF734FE00F012FCFFF780FE1EE7501C11
:10549000984211DA4FF0E023D3F8F03DDC0700D555
:1054A00000BE0BB0BDE8F08F099B9DF821209DF850
:1054B0001C0000F019FC09E79B1A2D4A02EB43136C
:1054C00058E7FFF78DFB0246002840F082814FF03D
:1054D000E023D3F8F03DDE0700D500BE9DF81C00A8
:1054E0000021FFF799FD80219DF81C00FFF794FD36
:1054F000ECE6204800F0E4FB0121404608AAFFF753
:1055000033F900287FF4E2AEE8E79DF8241011F0AB
:10551000700FDCD101F07F0607EB4600164B00EB65
:10552000D1101B78007D7600019698424FEAD11683
:10553000009659D35E1C8642C0F26681C01A0C4B9D
:1055400003EB4016002A00F06381706900F0B8FB9D
:1055500001214046736908AA984700287FF4B6AE37
:10556000BCE700BF201E0020C81D0020F81B002043
:1055700048A70010694700102127002030120020A2
:10558000232700209DF824300F2BA7D8AE4A3B4498
:105590001B791278934232D3511C99429EDBAB4E59
:1055A0009B1A06EB4316706900F08AFB0121404606
:1055B000736908AA984700287FF488AE9DF82030C8
:1055C00013F060068AD19DF821300A3B012B85D863
:1055D00000F076FB9DF821300A2B00F0F281404666
:1055E00008A900F0F1FA71E6994B1B6803EB40162D
:1055F000002A00F00D81002E3FF470AFA5E7944A19
:10560000166816EB4316CED168E77B789DF82260CA
:105610009E4200F04F817B78002B40F0BE817E706F
:10562000002E00F04581701EC0B2FFF7D9FA034684
:10563000002800F05F814278022A40F05B81C17946
:1056400003F10906C1F340121201C1F3801142EACD
:1056500041123146387820F0300002433A705A88BF
:10566000CDF80C809A180192019B8B4240F2A481E4
:105670004A780B2A00F0AF810123042A40F03A81D6
:105680000026019A0096521A92B202926E4A049330
:1056900012781DE06E4B1B6813EB461800F02A8150
:1056A000029AD8F8103003980591984708280246C6
:1056B000059906F1010303D90298904280F0FF801A
:1056C000DEB2614B00961A78531C9E4200F31281A1
:1056D000009BB242A3EB0202DCD85C4B03EB421806
:1056E000DEE77B7840468DF81A300DF11A0201236F
:1056F00008A900F083FAE9E5BDF82200030A013B9E
:10570000020AC0B20E2B3FF6E9AE01A151F823F018
:1057100025590010C157001061590010DD540010C8
:10572000DD54001043590010C1570010DD54001023
:10573000DD540010DD540010DD540010DD54001065
:10574000DD540010DD5400101759001008A800F0B7
:10575000BDFA40469DF82210FFF7A2FB3B7843F0CC
:1057600002033B70B2E5BDF82230012B7FF4B6AEE8
:105770003B78404623F0080308A93B7000F024FA68
:10578000A4E540463B789A0802F00202C3F34013B6
:105790001343ADF81A300DF11A02022308A900F0E4
:1057A0002DFA93E5BDF82230012B7FF497AE3B78BC
:1057B000404643F0080308A93B7000F005FA85E570
:1057C000022A3FF47EAEFFF7DDFC024600283FF4DC
:1057D00085AE4046538808A900F010FA00287FF4EF
:1057E00075AD7BE69DF824300F2B3FF677AE164A59
:1057F0003B441B79127893421DD2154A166816EB6A
:1058000043167FF4A2AE69E6002A7FF467AE002655
:105810009DF8212002F0FD03012B1BD0002A7FF40C
:1058200056AE019B009A3B44134493F834304046F3
:10583000C3F34003ADE7511C9942FFF64FAE034E50
:105840009B1A06EB431680E62127002048A700108C
:10585000F81B0020BDF82230B3B9012A99F80000E6
:1058600000F08680FFF7D8FB019B009A3B4413446D
:1058700093F8342042F0020283F8342093F8342065
:1058800042F0010283F83420002E3FF41FAD70690E
:1058900000F016FA7369012108AA404698470020D3
:1058A00000F00EFA97F83530DF073FF50FAD96E6BA
:1058B000FFF76CFC404608A900F086F906E5049B5A
:1058C000012B00F09E80002B00F08A80002091F8D0
:1058D000028005E08CF804605FFA80FC63457FD9A4
:1058E00008EB000C57FA8CFC9CF804E00130BEF188
:1058F000FF0FEFD04FF0E023D3F8F03DDA0700D5EB
:1059000000BE4FF0E023D3F8F03DDB0700D500BE2A
:1059100000237B70E2E5FEF723FF024600287FF4B8
:1059200058AFDBE5FFF758F9024600283FF4CFAD4A
:105930004046122308A900F061F900287FF4C6ACA4
:10594000CCE5FFF71DFC024600283FF4C7AD4046FA
:10595000137808A900F052F900287FF4B7ACBDE530
:10596000BDF82410FFF740F902460028EFD1B5E555
:105970000293FFF769FB019A009B3A441A4492F89C
:105980003410029B63F3410182F8341092F8341012
:1059900063F3000182F8341076E700214046FFF7F8
:1059A00087FA4046FFF722FBBB7840460093FFF79B
:1059B0009DFB009BBB7032E6DDF80C80FFF7E4FB3B
:1059C00078E74046012308A90DF11A028DF81A6004
:1059D00000F014F97AE40A78CB7811444A784CE65E
:1059E000334610480492029100F076FE0E4B049A62
:1059F00002991B781144009A01339342BFF634AEEA
:105A000078E7D8F810C00948844508BF02235DE74D
:105A10004FF0E023D3F8F03DDB077FF557AC00BE35
:105A200054E400BFDC1D002021270020F960001095
:105A30002DE9F84F0A9F002A40D00C461E46154615
:105A40004FF0000ADFF87C90DFF87C8018E02046F9
:105A500098F8021099F800B000F00EFEE0B121466F
:105A60005846FFF741FAF0B1A2780AF1010AD109CC
:105A700016BF0B9B3A701A702278AA4514441DD0A9
:105A80006278052A0FD1E17801F00301B1420AD111
:105A9000A27812F0700FDAD04FF0E023D3F8F03D87
:105AA000DA0700D500BE4FF0E023D3F8F03DDB0766
:105AB00002D40020BDE8F88F00BEFAE70120BDE85F
:105AC000F88F00BF30120020C81D002038B58B7839
:105AD00013F0700F08D04FF0E023D3F8F03DDB0750
